:020000040800F2
:1000000000280020710E00081D0C0008230C0008B9
:10001000290C00082F0C0008350C00080000000017
:100020000000000000000000000000003B0C000881
:10003000470C000800000000530C00085F0C00088B
:10004000B90E0008B90E0008B90E0008B90E000874
:10005000B90E0008B90E0008B90E0008B90E000864
:10006000B90E0008B90E0008B90E0008B90E000854
:10007000B90E0008B90E0008B90E0008B90E000844
:10008000B90E0008B90E0008B90E0008B90E000834
:10009000B90E0008B90E0008B90E0008B90E000824
:1000A000B90E0008B90E0008B90E0008B90E000814
:1000B0006D0C0008B90E000800000000B90E000821
:1000C000B90E00080000000000000000B90E000892
:1000D00000000000B90E0008B90E00080000000082
:1000E000B90E0008B90E0008B90E000800000000A3
:1000F0000000000000000000000000000000000000
:0C01000000000000000000005FF808F1A3
:10010C0010B5054C237833B9044B13B10448AFF345
:10011C0000800123237010BD84000020000000002B
:10012C00E824000808B5034B1BB103490348AFF39F
:10013C00008008BD0000000088000020E8240008B2
:10014C0080B483B000AF7860094A7B6852F82330E2
:10015C00012B06D1064A7B68002142F823100123AB
:10016C0000E0002318460C37BD4680BC704700BF2A
:10017C00B800002080B483B000AF7860044A7B687C
:10018C00012142F8231000BF0C37BD4680BC7047DC
:10019C00B800002080B582B000AF78607B68032B7C
:1001AC0023D801A252F823F0C5010008D30100089E
:1001BC00DF010008EB0100084FF400510E4801F07C
:1001CC0061F9034613E001210C4801F05BF9034689
:1001DC000DE00221094801F055F9034607E004211E
:1001EC00064801F04FF9034601E000BF0023184612
:1001FC000837BD4680BD00BF00100140000801401B
:10020C0080B582B000AF00237B6064E0364A7B6827
:10021C0052F8232035497B6841F82320344A7B6807
:10022C0052F8232030497B6841F823207868FFF787
:10023C00B1FF02462E497B6841F823202B4A7B688C
:10024C0052F8232028497B6851F823309A423FD139
:10025C00254A7B6852F8232025497B6851F82330C6
:10026C009A4235D1234A7B6852F8232020497B6877
:10027C0051F823309A4217D01D4A7B6852F823203C
:10028C001C497B6841F82320194A7B6852F82330BB
:10029C00002B1DD17868FFF76DFF174A7B684FF470
:1002AC00967142F8231013E0134A7B6852F82330FE
:1002BC005A1E11497B6841F823200F4A7B6852F87B
:1002CC002330002B04D10B4A7B68012142F8231008
:1002DC007B6801337B607B68042B97DD00BF00BF1C
:1002EC000837BD4680BD00BF140000200000002070
:1002FC00280000203C0000205000002080B582B077
:10030C0000AF78607B68092B00F2B88001A252F82C
:10031C0023F000BF490300086903000889030008A3
:10032C00A9030008C9030008E90300080904000830
:10033C00290400084904000869040008012240212E
:10034C00514801F0B6F8002207214F4801F0B1F8EE
:10035C00002238214C4801F0ACF890E001224121F8
:10036C00494801F0A6F800220621474801F0A1F8FF
:10037C0001223821444801F09CF880E0012224211C
:10038C00414801F096F8002243213F4801F091F8D2
:10039C00002218213C4801F08CF870E00122302139
:1003AC00394801F086F800220721374801F081F81E
:1003BC0000224821344801F07CF860E00122192128
:1003CC00314801F076F8002206212F4801F071F82F
:1003DC00002260212C4801F06CF850E0012212211F
:1003EC00294801F066F800220521274801F061F840
:1003FC0000226821244801F05CF840E0012202212F
:10040C00214801F056F8002215211F4801F051F83F
:10041C00002268211C4801F04CF830E001224021F8
:10042C00194801F046F800220721174801F041F85D
:10043C0001223821144801F03CF820E00022402130
:10044C00114801F036F8002207210F4801F031F86D
:10045C00002238210C4801F02CF810E00122102168
:10046C00094801F026F800220721074801F021F87D
:10047C0000226821044801F01CF800E000BF00BF16
:10048C000837BD4680BD00BF000C014080B500AFF1
:10049C003E4B1B68012B0ED1012220213C4801F060
:1004AC0008F8002240213A4801F003F8002280218C
:1004BC00374800F0FEFF374B1B68012B0ED1002292
:1004CC002021334800F0F5FF01224021304800F094
:1004DC00F0FF002280212E4800F0EBFF2E4B1B6812
:1004EC00012B0ED100222021294800F0E2FF00222E
:1004FC004021274800F0DDFF01228021244800F034
:10050C00D8FF264B1B68012B11D101224FF48071AF
:10051C001F4800F0CEFF00224FF400711C4800F081
:10052C00C8FF00224FF48061194800F0C2FF1C4B39
:10053C001B68012B11D100224FF48071144800F07C
:10054C00B8FF01224FF40071114800F0B2FF0022F5
:10055C004FF480610E4800F0ACFF124B1B68012B6E
:10056C0011D100224FF48071094800F0A2FF002243
:10057C004FF40071064800F09CFF01224FF480619B
:10058C00034800F096FF00BF80BD00BF6400002050
:10059C0000080140A4000020A0000020A8000020BA
:1005AC00AC0000206800002080B500AF00F002F81D
:1005BC0000BF80BD80B500AF2D4B1B68022B19D13D
:1005CC002C4B1B681846FFF799FE2B4B5B69012BD4
:1005DC0010D1284B1B68002B02DC264B06221A601C
:1005EC00244B1B68013B234A13604FF47A7105209E
:1005FC0000F068FA1E4B1B68042B19D11F4B1B68AB
:10060C001846FFF77BFE1C4B5B69012B10D11B4B73
:10061C001B68002B02DC194B04221A60174B1B6859
:10062C00013B164A13604FF47A71052000F04AFA28
:10063C000F4B1B68032B19D1114B1B681846FFF786
:10064C005DFE0D4B5B69012B10D10D4B1B68002B14
:10065C0002DC0B4B03221A60094B1B68013B084A56
:10066C0013604FF47A71052000F02CFA00BF80BDA6
:10067C00B00000206C000020500100207000002011
:10068C007400002080B500AF00F010FB3C4B1B68E1
:10069C00013B032B6AD801A252F823F0B9060008DB
:1006AC00CB0600083F07000805070008344B022260
:1006BC001A6041F28831012000F004FA5DE0FFF786
:1006CC00E5FE304B5B68012B07D12D4B04221A60E1
:1006DC0040F6B831012000F0F5F90120FFF730FDAC
:1006EC000346012B44D1264B0C221A6042F21071A6
:1006FC00012000F0E7F93BE0FFF7C8FE214B5B68F7
:10070C00012B07D11E4B03221A604FF4FA61012012
:10071C0000F0D8F90120FFF713FD0346012B29D176
:10072C00174B0E221A6042F21071012000F0CAF928
:10073C0020E0FFF7ABFE134B5B68012B07D1104B8E
:10074C0002221A6041F28831012000F0BBF901202D
:10075C00FFF7F6FC0346012B0ED1094B0D221A6054
:10076C0042F21071012000F0ADF905E000BF04E089
:10077C0000BF02E000BF00E000BF00BF80BD00BFB3
:10078C00B00000205001002080B500AF00F0FCFA52
:10079C00274B1B68013B032B40D801A252F823F0D6
:1007AC00BD0700080B080008ED070008CF0700087C
:1007BC001F4B04221A6040F6B831022000F082F977
:1007CC0033E0FFF763FE1B4B9B68012B28D1184BC2
:1007DC0003221A604FF4FA61022000F073F91FE053
:1007EC00FFF754FE134B9B68012B1BD1104B0222BD
:1007FC001A6041F28831022000F064F912E0FFF730
:10080C0045FE0C4B9B68012B0ED1094B04221A6040
:10081C0040F6B831022000F055F905E000BF04E0C5
:10082C0000BF02E000BF00E000BF00BF80BD00BF02
:10083C00B40000205001002080B500AFFFF722FF6C
:10084C00FFF7A2FF00BF80BD80B500AF00F030FB0A
:10085C0000F020F800F0A6F800F058F80A4801F073
:10086C0085FA0A4B01221A60094B01221A604FF4D7
:10087C007A71002000F026F900F002FAFFF7DCFF95
:10088C00FFF792FEF8E700BFE0000020B000002068
:10089C00B400002080B590B000AF07F118032822F7
:1008AC000021184601F012FE3B1D00221A605A600E
:1008BC009A60DA601A610223BB610123BB621023C8
:1008CC00FB6200237B6307F11803184600F022FE3D
:1008DC000346002B01D000F0EFF80F237B600023C0
:1008EC00BB600023FB6000233B6100237B613B1D4D
:1008FC000021184601F08EF80346002B01D000F0C1
:10090C00DBF800BF4037BD4680BD000080B586B027
:10091C0000AF07F1080300221A605A609A60DA608F
:10092C003B4600221A605A601D4B4FF080421A6001
:10093C001B4B41F63F725A60194B00229A60184BC0
:10094C000922DA60164B00221A61154B00229A61BB
:10095C00134801F0BBF90346002B01D000F0ACF8B2
:10096C004FF48053BB6007F1080319460C4801F0A3
:10097C0039FB0346002B01D000F09EF800233B60AE
:10098C0000237B603B461946054801F011FD0346E8
:10099C00002B01D000F090F800BF1837BD4680BD89
:1009AC00E000002080B588B000AF07F110030022F2
:1009BC001A605A609A60DA60354B9B69344A43F08E
:1009CC0010039361324B9B6903F01003FB60FB68CF
:1009DC002F4B9B692E4A43F0040393612C4B9B696C
:1009EC0003F00403BB60BB68294B9B69284A43F0A6
:1009FC0008039361264B9B6903F008037B607B68BB
:100A0C0000224FF6F871234800F053FD002243F604
:100A1C00FF71214800F04DFD4FF400533B61002362
:100A2C007B610123BB6107F1100319461B4800F0E1
:100A3C00AFFB07233B6100237B610123BB6107F103
:100A4C0010031946134800F0A3FB4FF6F8733B61F3
:100A5C0001237B610023BB610223FB6107F11003BF
:100A6C0019460C4800F094FB43F6FF733B610123DD
:100A7C007B610023BB610223FB6107F11003194664
:100A8C00054800F085FB00BF2037BD4680BD00BF88
:100A9C000010024000080140000C01400010014011
:100AAC0080B582B000AF786000F02CF8FFF7A8FB9F
:100ABC0000BF0837BD4680BD80B400AF72B600BF22
:100ACC00FEE7000080B483B000AF786039600A4A5A
:100ADC007B68002142F823103B68084A82FB031212
:100AEC009210DB17D21A06497B6841F8232000BF0D
:100AFC000C37BD4680BC70475001002067666666A7
:100B0C002801002080B483B000AF00237B601CE080
:100B1C00124A7B6852F82330002B13DB0F4A7B6898
:100B2C0052F823305A1E0D497B6841F823200B4A9A
:100B3C007B6852F82330002B04DC094A7B680121C6
:100B4C0042F823107B6801337B607B68092BDFDD67
:100B5C0000BF00BF0C37BD4680BC70472801002089
:100B6C005001002080B485B000AF154B9B69144A2E
:100B7C0043F001039361124B9B6903F00103BB60CB
:100B8C00BB680F4BDB690E4A43F08053D3610C4BAF
:100B9C00DB6903F080537B607B680A4B5B68FB600E
:100BAC00FB6823F0E063FB60FB6843F08063FB6051
:100BBC00044AFB68536000BF1437BD4680BC7047C5
:100BCC00001002400000014080B584B000AF786096
:100BDC007B681B68B3F1804F13D10C4BDB690B4A5C
:100BEC0043F00103D361094BDB6903F00103FB60A4
:100BFC00FB68002200211C2000F093FA1C2000F05E
:100C0C00ACFA00BF1037BD4680BD00BF00100240DB
:100C1C0080B400AFFEE780B400AFFEE780B400AF55
:100C2C00FEE780B400AFFEE780B400AFFEE780B40F
:100C3C0000AF00BFBD4680BC704780B400AF00BFA2
:100C4C00BD4680BC704780B400AF00BFBD4680BCC1
:100C5C00704780B500AF00F071F900BF80BD000097
:100C6C0080B500AF024801F0CDF800BF80BD00BFD9
:100C7C00E000002080B400AF00BFBD4680BC7047D0
:100C8C0080B500AF074B1B68012B08D1102106481B
:100C9C0000F027FC4FF47A710020FFF713FF00BF20
:100CAC0080BD00BF500100200008014080B400AF9F
:100CBC00314B1B68023B0C2B58D801A252F823F085
:100CCC00010D0008510D0008290D0008790D0008D0
:100CDC00790D0008790D0008790D0008790D0008D0
:100CEC00790D0008790D0008150D0008650D000838
:100CFC003D0D0008214B01221A60214B00221A6085
:100D0C00204B00221A6032E01C4B01221A601C4B53
:100D1C0000221A601B4B00221A6028E0174B00229D
:100D2C001A60174B01221A60164B00221A601EE043
:100D3C00124B00221A60124B01221A60114B002236
:100D4C001A6014E00D4B00221A600D4B00221A6041
:100D5C000C4B01221A600AE0084B00221A60084B67
:100D6C0000221A60074B01221A6000E000BF00BF8E
:100D7C00BD4680BC704700BFB0000020640000205E
:100D8C00A0000020A400002080B400AF314B1B68F1
:100D9C00023B0C2B58D801A252F823F0DD0D0008B1
:100DAC002D0E0008050E0008550E0008550E000803
:100DBC00550E0008550E0008550E0008550E00087B
:100DCC00550E0008F10D0008410E0008190E000820
:100DDC00214B01221A60214B00221A60204B002269
:100DEC001A6032E01C4B01221A601C4B00221A6064
:100DFC001B4B00221A6028E0174B00221A60174B7D
:100E0C0001221A60164B00221A601EE0124B0022BF
:100E1C001A60124B01221A60114B00221A6014E066
:100E2C000D4B00221A600D4B00221A600C4B012254
:100E3C001A600AE0084B00221A60084B00221A6064
:100E4C00074B01221A6000E000BF00BFBD4680BC0A
:100E5C00704700BFB4000020A800002068000020EC
:100E6C00AC000020FFF706FF0B480C490C4A00238E
:100E7C0002E0D458C4500433C4188C42F9D3094A44
:100E8C00094C002301E013600432A242FBD301F0B1
:100E9C00F9FAFFF7D9FC704700000020840000200D
:100EAC002C250008840000207C010020FEE70000B7
:100EBC0080B500AF084B1B68074A43F01003136062
:100ECC00032000F023F90F2000F008F8FFF74AFE8A
:100EDC000023184680BD00BF0020024080B582B0C0
:100EEC0000AF7860124B1A68124B1B7819464FF4FE
:100EFC007A73B3FBF1F3B2FBF3F3184600F03BF952
:100F0C000346002B01D001230EE07B680F2B0AD87F
:100F1C00002279684FF0FF3000F003F9064A7B6835
:100F2C001360002300E0012318460837BD4680BD3E
:100F3C0078000020800000207C00002080B400AFEE
:100F4C00054B1B781A46054B1B681344034A136068
:100F5C0000BFBD4680BC7047800000207801002097
:100F6C0080B400AF024B1B681846BD4680BC70476E
:100F7C007801002080B485B000AF78607B6803F006
:100F8C000703FB600C4BDB68BB60BA684FF6FF03D2
:100F9C001340BB60FB681A02BB68134343F0BF638A
:100FAC0043F40033BB60044ABB68D36000BF143702
:100FBC00BD4680BC704700BF00ED00E080B400AFC0
:100FCC00044BDB681B0A03F007031846BD4680BCC4
:100FDC00704700BF00ED00E080B483B000AF034663
:100FEC00FB7197F90730002B0BDBFB7903F01F0229
:100FFC00064997F907305B09012000FA02F241F823
:10100C00232000BF0C37BD4680BC704700E100E0D8
:10101C0080B483B000AF03463960FB7197F9073099
:10102C00002B0ADB3B68DAB20C4997F90730120146
:10103C00D2B20B4483F800230AE03B68DAB20849C9
:10104C00FB7903F00F03043B1201D2B20B441A7666
:10105C0000BF0C37BD4680BC704700BF00E100E00C
:10106C0000ED00E080B489B000AFF860B9607A6040
:10107C00FB6803F00703FB61FB69C3F10703042B57
:10108C0028BF0423BB61FB690433062B02D9FB691F
:10109C00033B00E000237B614FF0FF32BB6902FA97
:1010AC0003F3DA43BB681A407B699A404FF0FF3177
:1010BC007B6901FA03F3D9437B680B401343184651
:1010CC002437BD4680BC704780B582B000AF7860D5
:1010DC007B68013BB3F1807F01D301230FE00A4A07
:1010EC007B68013B53600F214FF0FF30FFF790FFFF
:1010FC00054B00229A60044B07221A600023184605
:10110C000837BD4680BD00BF10E000E080B582B05E
:10111C0000AF78607868FFF72DFF00BF0837BD4639
:10112C0080BD80B586B000AF0346B9607A60FB73B2
:10113C0000237B61FFF742FF78617A68B9687869B0
:10114C00FFF790FF024697F90F3011461846FFF74C
:10115C005FFF00BF1837BD4680BD80B582B000AFC1
:10116C000346FB7197F907301846FFF735FF00BFB0
:10117C000837BD4680BD80B582B000AF7860786816
:10118C00FFF7A2FF034618460837BD4680BD000096
:10119C0080B48BB000AF7860396000237B62002391
:1011AC003B6248E101227B6A02FA03F3FB613B6874
:1011BC001B68FA691340BB61BA69FB699A4240F03B
:1011CC0037813B685B68A34A93425ED0A14A934245
:1011DC0075D8A14A934258D09F4A93426FD89F4AE0
:1011EC00934252D09D4A934269D89D4A93424CD027
:1011FC009B4A934263D89B4A934246D0994A934266
:10120C005DD8122B2AD8122B59D801A252F823F0F0
:10121C00971200087112000883120008C51200080A
:10122C00CB120008CB120008CB120008CB1200081E
:10123C00CB120008CB120008CB120008CB1200080E
:10124C00CB120008CB120008CB120008CB120008FE
:10125C00CB120008791200088D120008824A9342C2
:10126C0013D02CE03B68DB683B6229E03B68DB6811
:10127C0004333B6224E03B68DB6808333B621FE0CD
:10128C003B68DB680C333B621AE03B689B68002BC5
:10129C0002D104233B6213E03B689B68012B05D110
:1012AC0008233B627B68FA691A6109E008233B62F8
:1012BC007B68FA695A6103E000233B6200E000BFDF
:1012CC00BB69FF2B01D87B6801E07B6804337B6131
:1012DC00BB69FF2B02D87B6A9B0002E07B6A083B50
:1012EC009B003B617B691A680F213B6901FA03F390
:1012FC00DB431A40396A3B6901FA03F31A437B69F1
:10130C001A603B685B6803F08053002B00F0908000
:10131C00564B9B69554A43F001039361534B9B69B0
:10132C0003F00103BB60BB68514A7B6A9B08023324
:10133C0052F82330FB607B6A03F003039B000F22FF
:10134C0002FA03F3DB43FA681340FB607B68494AFB
:10135C0093420DD07B68484A934207D07B68474A3A
:10136C00934201D1022304E0032302E0012300E0B5
:10137C0000237A6A02F0030292009340FA68134346
:10138C00FB603B497B6A9B080233FA6841F82320D7
:10139C003B685B6803F48013002B06D0384B9A68CB
:1013AC003749BB6913438B6006E0354B9A68BB69C0
:1013BC00DB43334913408B603B685B6803F40013D9
:1013CC00002B06D02E4BDA682D49BB691343CB603A
:1013DC0006E02B4BDA68BB69DB4329491340CB6031
:1013EC003B685B6803F40033002B06D0244B5A682F
:1013FC002349BB6913434B6006E0214B5A68BB6918
:10140C00DB431F4913404B603B685B6803F480333C
:10141C00002B06D01A4B1A681949BB6913430B6091
:10142C0006E0174B1A68BB69DB43154913400B6088
:10143C007B6A01337B623B681A687B6A22FA03F38E
:10144C00002B7FF4AFAE00BF00BF2C37BD4680BC75
:10145C00704700BF00003210000031100000221055
:10146C0000002110000012100000111000100240AA
:10147C000000014000080140000C01400010014038
:10148C000004014080B485B000AF78600B467B80CF
:10149C007B689A687B881340002B02D00123FB7376
:1014AC0001E00023FB73FB7B18461437BD4680BC60
:1014BC00704780B483B000AF78600B467B801346D6
:1014CC007B707B78002B03D07A887B681A6103E0F1
:1014DC007B881A047B681A6100BF0C37BD4680BC40
:1014EC00704780B485B000AF78600B467B807B681A
:1014FC00DB68FB607A88FB6813401A04FB68D943ED
:10150C007B880B401A437B681A6100BF1437BD46B9
:10151C0080BC704780B586B000AF78607B68002BCC
:10152C0001D101236CE27B681B6803F00103002BE3
:10153C0000F08780924B5B6803F00C03042B0CD0FB
:10154C008F4B5B6803F00C03082B12D18C4B5B6840
:10155C0003F48033B3F5803F0BD1894B1B6803F444
:10156C000033002B6CD07B685B68002B68D10123A7
:10157C0046E27B685B68B3F5803F06D1804B1B6805
:10158C007F4A43F4803313602EE07B685B68002B4A
:10159C000CD17B4B1B687A4A23F480331360784B55
:1015AC001B68774A23F4802313601DE07B685B681B
:1015BC00B3F5A02F0CD1724B1B68714A43F48023F6
:1015CC0013606F4B1B686E4A43F4803313600BE05F
:1015DC006B4B1B686A4A23F480331360684B1B689F
:1015EC00674A23F4802313607B685B68002B13D05D
:1015FC00FFF7B6FC386108E0FFF7B2FC02463B6926
:10160C00D31A642B01D90323FAE15D4B1B6803F455
:10161C000033002BF0D014E0FFF7A2FC386108E097
:10162C00FFF79EFC02463B69D31A642B01D90323B6
:10163C00E6E1534B1B6803F40033002BF0D100E0C0
:10164C0000BF7B681B6803F00203002B63D04C4B7C
:10165C005B6803F00C03002B0BD0494B5B6803F069
:10166C000C03082B1CD1464B5B6803F48033002B16
:10167C0016D1434B1B6803F00203002B05D07B688B
:10168C001B69012B01D00123BAE13D4B1B6823F0F0
:10169C00F8027B685B69DB00394913430B603AE065
:1016AC007B681B69002B20D0364B01221A60FFF798
:1016BC0057FC386108E0FFF753FC02463B69D31A2C
:1016CC00022B01D903239BE12D4B1B6803F0020372
:1016DC00002BF0D02A4B1B6823F0F8027B685B6967
:1016EC00DB00274913430B6015E0264B00221A60E0
:1016FC00FFF736FC386108E0FFF732FC02463B6925
:10170C00D31A022B01D903237AE11D4B1B6803F07A
:10171C000203002BF0D17B681B6803F00803002B3D
:10172C003AD07B689B69002B19D0174B01221A60A9
:10173C00FFF716FC386108E0FFF712FC02463B6924
:10174C00D31A022B01D903235AE10D4B5B6A03F028
:10175C000203002BF0D0012000F09AFA1CE00A4B97
:10176C0000221A60FFF7FCFB38610FE0FFF7F8FB73
:10177C0002463B69D31A022B08D9032340E100BF70
:10178C000010024000004242800442429E4B5B6AC1
:10179C0003F00203002BE9D17B681B6803F0040300
:1017AC00002B00F0A6800023FB75974BDB6903F040
:1017BC008053002B0DD1944BDB69934A43F080533B
:1017CC00D361914BDB6903F08053BB60BB68012391
:1017DC00FB758E4B1B6803F48073002B18D18B4B5D
:1017EC001B688A4A43F480731360FFF7B9FB3861B6
:1017FC0008E0FFF7B5FB02463B69D31A642B01D90D
:10180C000323FDE0814B1B6803F48073002BF0D0A5
:10181C007B68DB68012B06D17B4B1B6A7A4A43F051
:10182C00010313622DE07B68DB68002B0CD1764B37
:10183C001B6A754A23F001031362734B1B6A724ACD
:10184C0023F0040313621CE07B68DB68052B0CD1CE
:10185C006D4B1B6A6C4A43F0040313626A4B1B6AA0
:10186C00694A43F0010313620BE0674B1B6A664A3B
:10187C0023F001031362644B1B6A634A23F00403D5
:10188C0013627B68DB68002B15D0FFF769FB3861AE
:10189C000AE0FFF765FB02463B69D31A41F2883236
:1018AC00934201D90323ABE0574B1B6A03F00203AD
:1018BC00002BEED014E0FFF753FB38610AE0FFF782
:1018CC004FFB02463B69D31A41F28832934201D94D
:1018DC00032395E04C4B1B6A03F00203002BEED163
:1018EC00FB7D012B05D1484BDB69474A23F0805324
:1018FC00D3617B68DB69002B00F08180424B5B6815
:10190C0003F00C03082B61D07B68DB69022B46D1FA
:10191C003F4B00221A60FFF723FB386108E0FFF70A
:10192C001FFB02463B69D31A022B01D9032367E044
:10193C00354B1B6803F00073002BF0D17B681B6ADE
:10194C00B3F5803F08D1304B5B6823F400327B68E1
:10195C009B682D4913434B602B4B5B6823F474122B
:10196C007B68196A7B685B6A0B43274913434B609E
:10197C00274B01221A60FFF7F3FA386108E0FFF7F2
:10198C00EFFA02463B69D31A022B01D9032337E045
:10199C001D4B1B6803F00073002BF0D02FE01C4B89
:1019AC0000221A60FFF7DCFA386108E0FFF7D8FA7A
:1019BC0002463B69D31A022B01D9032320E0124BB8
:1019CC001B6803F00073002BF0D118E07B68DB6917
:1019DC00012B01D1012313E00B4B5B68FB60FB680F
:1019EC0003F480327B681B6A9A4206D1FB6803F4CD
:1019FC0070127B685B6A9A4201D0012300E00023DD
:101A0C0018461837BD4680BD0010024000700040DB
:101A1C006000424280B584B000AF786039607B686A
:101A2C00002B01D10123D0E06A4B1B6803F00703A4
:101A3C003A689A4210D9674B1B6823F00702654934
:101A4C003B6813430B60634B1B6803F007033A6856
:101A5C009A4201D00123B8E07B681B6803F00203B3
:101A6C00002B20D07B681B6803F00403002B05D0EF
:101A7C00594B5B68584A43F4E06353607B681B68BE
:101A8C0003F00803002B05D0534B5B68524A43F418
:101A9C0060535360504B5B6823F0F0027B689B688B
:101AAC004D4913434B607B681B6803F00103002B0B
:101ABC0040D07B685B68012B07D1474B1B6803F454
:101ACC000033002B15D101237FE07B685B68022B70
:101ADC0007D1414B1B6803F00073002B09D1012384
:101AEC0073E03D4B1B6803F00203002B01D1012373
:101AFC006BE0394B5B6823F003027B685B6836490B
:101B0C0013434B60FFF72CFAF8600AE0FFF728FA52
:101B1C000246FB68D31A41F28832934201D903235F
:101B2C0053E02D4B5B6803F00C027B685B689B00F9
:101B3C009A42EBD1274B1B6803F007033A689A4291
:101B4C0010D2244B1B6823F0070222493B68134335
:101B5C000B60204B1B6803F007033A689A4201D0D4
:101B6C00012332E07B681B6803F00403002B08D0D0
:101B7C00194B5B6823F4E0627B68DB6816491343FE
:101B8C004B607B681B6803F00803002B09D0124BD9
:101B9C005B6823F460527B681B69DB000E491343BE
:101BAC004B6000F021F802460B4B5B681B0903F0FD
:101BBC000F030A49CB5C22FA03F3094A1360094B61
:101BCC001B681846FFF78AF9002318461037BD46E4
:101BDC0080BD00BF0020024000100240002500081C
:101BEC00780000207C00002080B487B000AF002378
:101BFC00FB600023BB6000237B6100237B60002320
:101C0C003B611E4B5B68FB60FB6803F00C03042B11
:101C1C0002D0082B03D027E0194B3B6127E0FB686F
:101C2C009B0C03F00F03174AD35C7B60FB6803F437
:101C3C008033002B10D0114B5B685B0C03F001035D
:101C4C00114AD35CBB607B680D4A02FB03F2BB6894
:101C5C00B2FBF3F37B6104E07B680C4A02FB03F3F9
:101C6C007B617B693B6102E0054B3B6100BF3B69DB
:101C7C0018461C37BD4680BC704700BF00100240A0
:101C8C0000127A00102500082025000800093D00EC
:101C9C0080B485B000AF78600A4B1B680A4AA2FB7F
:101CAC0003235B0A7A6802FB03F3FB6000BFFB684B
:101CBC005A1EFA60002BF9D100BF00BF1437BD4685
:101CCC0080BC704778000020D34D621080B582B084
:101CDC0000AF78607B68002B01D1012341E07B6869
:101CEC0093F83D30DBB2002B06D17B68002283F8E1
:101CFC003C207868FEF768FF7B68022283F83D2061
:101D0C007B681A687B6804331946104600F056FA53
:101D1C007B68012283F846207B68012283F83E20F1
:101D2C007B68012283F83F207B68012283F84020E6
:101D3C007B68012283F841207B68012283F84220D2
:101D4C007B68012283F843207B68012283F84420BE
:101D5C007B68012283F845207B68012283F83D20B3
:101D6C00002318460837BD4680BD000080B485B0FE
:101D7C0000AF78607B6893F83D30DBB2012B01D06B
:101D8C00012335E07B68022283F83D207B681B68C9
:101D9C00DA687B681B6842F00102DA607B681B68BA
:101DAC00164A934209D07B681B68B3F1804F04D06C
:101DBC007B681B68124A934211D17B681B689B6835
:101DCC0003F00703FB60FB68062B10D07B681B68D5
:101DDC001A687B681B6842F001021A6007E07B6896
:101DEC001B681A687B681B6842F001021A600023AA
:101DFC0018461437BD4680BC704700BF002C01400C
:101E0C000004004080B584B000AF78607B681B682C
:101E1C00DB68FB607B681B681B69BB60BB6803F0FD
:101E2C000203002B20D0FB6803F00203002B1BD015
:101E3C007B681B686FF002021A617B6801221A77BB
:101E4C007B681B689B6903F00303002B03D0786845
:101E5C0000F098F905E0786800F08BF9786800F0EC
:101E6C009AF97B6800221A77BB6803F00403002BF5
:101E7C0020D0FB6803F00403002B1BD07B681B688D
:101E8C006FF004021A617B6802221A777B681B6868
:101E9C009B6903F44073002B03D0786800F072F94F
:101EAC0005E0786800F065F9786800F074F97B68F3
:101EBC0000221A77BB6803F00803002B20D0FB68C4
:101ECC0003F00803002B1BD07B681B686FF0080223
:101EDC001A617B6804221A777B681B68DB6903F044
:101EEC000303002B03D0786800F04CF905E0786808
:101EFC0000F03FF9786800F04EF97B6800221A7701
:101F0C00BB6803F01003002B20D0FB6803F0100318
:101F1C00002B1BD07B681B686FF010021A617B686A
:101F2C0008221A777B681B68DB6903F44073002B6B
:101F3C0003D0786800F026F905E0786800F019F90C
:101F4C00786800F028F97B6800221A77BB6803F0E8
:101F5C000103002B0CD0FB6803F00103002B07D00E
:101F6C007B681B686FF001021A617868FEF798FDB8
:101F7C00BB6803F08003002B0CD0FB6803F08003DC
:101F8C00002B07D07B681B686FF080021A617868A1
:101F9C0000F06FFABB6803F04003002B0CD0FB6819
:101FAC0003F04003002B07D07B681B686FF04002E6
:101FBC001A61786800F0F8F8BB6803F02003002B76
:101FCC000CD0FB6803F02003002B07D07B681B6848
:101FDC006FF020021A61786800F042FA00BF1037E7
:101FEC00BD4680BD80B584B000AF786039600023F9
:101FFC00FB737B6893F83C30012B01D10223B4E0D6
:10200C007B68012283F83C207B68022283F83D2008
:10201C007B681B689B68BB60BB6823F07703BB6065
:10202C00BB6823F47F43BB607B681B68BA689A600B
:10203C003B681B68B3F5005F3ED0B3F5005F00F260
:10204C008780B3F5805F00F08680B3F5805F7FD822
:10205C00702B1AD0702B7BD8602B50D0602B77D87C
:10206C00502B3CD0502B73D8402B58D0402B6FD8D2
:10207C00302B64D0302B6BD8202B60D0202B67D822
:10208C00002B5CD0102B5AD062E07B6818683B6840
:10209C0099683B685A683B68DB6800F06AF97B68B2
:1020AC001B689B68BB60BB6843F07703BB607B68B5
:1020BC001B68BA689A604FE07B6818683B6899683F
:1020CC003B685A683B68DB6800F053F97B681B6817
:1020DC009A687B681B6842F480429A603CE07B689B
:1020EC0018683B6859683B68DB681A4600F0CAF808
:1020FC007B681B685021184600F021F92CE07B68A6
:10210C0018683B6859683B68DB681A4600F0E8F8C9
:10211C007B681B686021184600F011F91CE07B6895
:10212C0018683B6859683B68DB681A4600F0AAF8E7
:10213C007B681B684021184600F001F90CE07B68B5
:10214C001A683B681B681946104600F0F8F803E063
:10215C000123FB7300E000BF7B68012283F83D2064
:10216C007B68002283F83C20FB7B18461037BD4669
:10217C0080BD80B483B000AF786000BF0C37BD4623
:10218C0080BC704780B483B000AF786000BF0C3760
:10219C00BD4680BC704780B483B000AF786000BF90
:1021AC000C37BD4680BC704780B483B000AF7860FC
:1021BC0000BF0C37BD4680BC7047000080B485B0B2
:1021CC0000AF786039607B681B68FB607B682B4ACA
:1021DC00934207D07B68B3F1804F03D07B68284AC9
:1021EC00934208D1FB6823F07003FB603B685B688B
:1021FC00FA681343FB607B68204A934207D07B68E4
:10220C00B3F1804F03D07B681D4A934208D1FB6821
:10221C0023F44073FB603B68DB68FA681343FB6094
:10222C00FB6823F080023B685B691343FB607B68AF
:10223C00FA681A603B689A687B68DA623B681A68CD
:10224C007B689A627B680D4A934203D13B681A699A
:10225C007B681A637B6801225A617B681B6903F0F7
:10226C000103002B05D07B681B6923F001027B68FE
:10227C001A6100BF1437BD4680BC7047002C01406A
:10228C000004004080B487B000AFF860B9607A6099
:10229C00FB681B6A7B61FB681B6A23F00102FB680D
:1022AC001A62FB689B693B613B6923F0F0033B615D
:1022BC007B681B013A6913433B617B6923F00A037A
:1022CC007B617A69BB6813437B61FB683A699A61ED
:1022DC00FB687A691A6200BF1C37BD4680BC704728
:1022EC0080B487B000AFF860B9607A60FB681B6A95
:1022FC007B61FB681B6A23F01002FB681A62FB68A7
:10230C009B693B613B6923F470433B617B681B0316
:10231C003A6913433B617B6923F0A0037B61BB6883
:10232C001B017A6913437B61FB683A699A61FB680C
:10233C007A691A6200BF1C37BD4680BC704780B4F6
:10234C0085B000AF786039607B689B68FB60FB6888
:10235C0023F07003FB603A68FB68134343F00703F8
:10236C00FB607B68FA689A6000BF1437BD4680BC7E
:10237C00704780B487B000AFF860B9607A603B609A
:10238C00FB689B687B617B6923F47F437B613B68C3
:10239C001A027B681A43BB6813437A6913437B6147
:1023AC00FB687A699A6000BF1C37BD4680BC7047D9
:1023BC0080B485B000AF786039607B6893F83C30AE
:1023CC00012B01D1022341E07B68012283F83C20E0
:1023DC007B68022283F83D207B681B685B68FB608E
:1023EC007B681B689B68BB60FB6823F07003FB6019
:1023FC003B681B68FA681343FB607B681B68FA68D0
:10240C005A607B681B68144A934209D07B681B682E
:10241C00B3F1804F04D07B681B68104A93420CD1F7
:10242C00BB6823F08003BB603B685B68BA681343EE
:10243C00BB607B681B68BA689A607B68012283F872
:10244C003D207B68002283F83C200023184614377B
:10245C00BD4680BC704700BF002C0140000400400A
:10246C0080B483B000AF786000BF0C37BD4680BC31
:10247C00704780B483B000AF786000BF0C37BD46A6
:10248C0080BC704770B500260C4D0D4C641BA4101D
:10249C00A64209D100F022F800260A4D0A4C641B12
:1024AC00A410A64205D170BD55F8043B98470136DF
:1024BC00EEE755F8043B98470136F2E7242500086F
:1024CC00242500082425000828250008034602447A
:1024DC00934200D1704703F8011BF9E7F8B500BF30
:1024EC00F8BC08BC9E467047F8B500BFF8BC08BCE9
:0424FC009E46704741
:1025000000000000000000000102030406070809A3
:1025100002030405060708090A0B0C0D0E0F101024
:0425200001020000B4
:042524003101000879
:042528000D01000899
:10252C00010000000100000001000000010000009B
:10253C00010000000100000001000000010000008B
:10254C00010000000100000001000000010000007B
:10255C00010000000100000001000000010000006B
:10256C00010000000100000001000000010000005B
:10257C002C0100002C0100002C0100002C0100009B
:10258C002C0100000100000001000000060000000A
:10259C00040000000300000000127A00100000008C
:0425AC00010000002A
:0400000508000E7170
:00000001FF
