:020000040800F2
:1000000000280020711200081D10000823100008AD
:10001000291000082F10000835100008000000000B
:100020000000000000000000000000003B1000087D
:100030004710000800000000531000085F1000087F
:10004000B9120008B9120008B9120008B912000864
:10005000B9120008B9120008B9120008B912000854
:10006000B9120008B9120008B9120008B912000844
:10007000B9120008B9120008B9120008B912000834
:10008000B9120008B9120008B9120008B912000824
:10009000B9120008B9120008B9120008B912000814
:1000A000B9120008B9120008B9120008B912000804
:1000B0006D100008B912000800000000B912000815
:1000C000B91200080000000000000000B91200088A
:1000D00000000000B9120008B9120008000000007A
:1000E000B9120008B9120008B91200080000000097
:1000F0000000000000000000000000000000000000
:0C01000000000000000000005FF808F1A3
:10010C0010B5054C237833B9044B13B10448AFF345
:10011C0000800123237010BD80000020000000002F
:10012C00E828000808B5034B1BB103490348AFF39B
:10013C00008008BD0000000084000020E8280008B2
:10014C0080B483B000AF7860094A7B6852F82330E2
:10015C00012B06D1064A7B68002142F823100123AB
:10016C0000E0002318460C37BD4680BC704700BF2A
:10017C00B800002080B483B000AF7860044A7B687C
:10018C00012142F8231000BF0C37BD4680BC7047DC
:10019C00B800002080B582B000AF78607B68032B7C
:1001AC0023D801A252F823F0C5010008D30100089E
:1001BC00DF010008EB0100084FF400510E4801F07C
:1001CC0061FB034613E001210C4801F05BFB034685
:1001DC000DE00221094801F055FB034607E004211C
:1001EC00064801F04FFB034601E000BF0023184610
:1001FC000837BD4680BD00BF00100140000801401B
:10020C0080B582B000AF00237B6064E0364A7B6827
:10021C0052F8232035497B6841F82320344A7B6807
:10022C0052F8232030497B6841F823207868FFF787
:10023C00B1FF02462E497B6841F823202B4A7B688C
:10024C0052F8232028497B6851F823309A423FD139
:10025C00254A7B6852F8232025497B6851F82330C6
:10026C009A4235D1234A7B6852F8232020497B6877
:10027C0051F823309A4217D01D4A7B6852F823203C
:10028C001C497B6841F82320194A7B6852F82330BB
:10029C00002B1DD17868FFF76DFF174A7B684FF470
:1002AC00967142F8231013E0134A7B6852F82330FE
:1002BC005A1E11497B6841F823200F4A7B6852F87B
:1002CC002330002B04D10B4A7B68012142F8231008
:1002DC007B6801337B607B68042B97DD00BF00BF1C
:1002EC000837BD4680BD00BF140000200000002070
:1002FC00280000203C0000205000002080B582B077
:10030C0000AF78607B68092B00F2B88001A252F82C
:10031C0023F000BF490300086903000889030008A3
:10032C00A9030008C9030008E90300080904000830
:10033C00290400084904000869040008012240212E
:10034C00514801F0B6FA002207214F4801F0B1FAEA
:10035C00002238214C4801F0ACFA90E001224121F6
:10036C00494801F0A6FA00220621474801F0A1FAFB
:10037C0001223821444801F09CFA80E0012224211A
:10038C00414801F096FA002243213F4801F091FACE
:10039C00002218213C4801F08CFA70E00122302137
:1003AC00394801F086FA00220721374801F081FA1A
:1003BC0000224821344801F07CFA60E00122192126
:1003CC00314801F076FA002206212F4801F071FA2B
:1003DC00002260212C4801F06CFA50E0012212211D
:1003EC00294801F066FA00220521274801F061FA3C
:1003FC0000226821244801F05CFA40E0012202212D
:10040C00214801F056FA002215211F4801F051FA3B
:10041C00002268211C4801F04CFA30E001224021F6
:10042C00194801F046FA00220721174801F041FA59
:10043C0001223821144801F03CFA20E0002240212E
:10044C00114801F036FA002207210F4801F031FA69
:10045C00002238210C4801F02CFA10E00122102166
:10046C00094801F026FA00220721074801F021FA79
:10047C0000226821044801F01CFA00E000BF00BF14
:10048C000837BD4680BD00BF000C014080B582B06E
:10049C0000AF78607B68092B00F2D68001A252F87D
:1004AC0023F000BFD9040008FF040008250500084C
:1004BC004B0500087105000897050008BD050008EC
:1004CC00E3050008090600082F06000801224FF476
:1004DC000051604801F0EDF900224FF460715D4865
:1004EC0001F0E7F900224FF4E0515A4801F0E1F92C
:1004FC00ABE001224FF40251564801F0DAF9002228
:10050C004FF44071534801F0D4F901224FF4E051FB
:10051C00504801F0CEF998E001224FF490514D482B
:10052C0001F0C7F900224FF406514A4801F0C1F915
:10053C0000224FF44061474801F0BBF985E00122ED
:10054C004FF4C051434801F0B4F900224FF46071EC
:10055C00404801F0AEF900224FF410513D4801F033
:10056C00A8F972E001224FF448613A4801F0A1F970
:10057C0000224FF44071374801F09BF900224FF4F0
:10058C004051344801F095F95FE001224FF41061BD
:10059C00304801F08EF900224FF420712D4801F003
:1005AC0088F900224FF450512A4801F082F94CE0AE
:1005BC0001224FF48071274801F07BF900224FF49F
:1005CC002861244801F075F900224FF4505121485C
:1005DC0001F06FF939E001224FF400511D4801F090
:1005EC0068F900224FF460711A4801F062F9012297
:1005FC004FF4E051174801F05CF926E000224FF46B
:10060C000051144801F055F900224FF46071114863
:10061C0001F04FF900224FF4E0510E4801F049F976
:10062C0013E001224FF400610A4801F042F9002264
:10063C004FF46071074801F03CF900224FF450511F
:10064C00044801F036F900E000BF00BF0837BD4692
:10065C0080BD00BF000C014080B500AF3E4B1B6855
:10066C00012B0ED1012220213C4801F022F900225D
:10067C0040213A4801F01DF900228021374801F051
:10068C0018F9374B1B68012B0ED10022202133485F
:10069C0001F00FF901224021304801F00AF9002243
:1006AC0080212E4801F005F92E4B1B68012B0ED131
:1006BC0000222021294801F0FCF800224021274883
:1006CC0001F0F7F801228021244801F0F2F8264BC2
:1006DC001B68012B11D101224FF480711F4801F0CE
:1006EC00E8F800224FF400711C4801F0E2F80022F7
:1006FC004FF48061194801F0DCF81C4B1B68012B8E
:10070C0011D100224FF48071144801F0D2F801226B
:10071C004FF40071114801F0CCF800224FF48061C5
:10072C000E4801F0C6F8124B1B68012B11D10022A8
:10073C004FF48071094801F0BCF800224FF40071AD
:10074C00064801F0B6F801224FF48061034801F02D
:10075C00B0F800BF80BD00BF64000020000801405D
:10076C00A00000209C000020A4000020A800002075
:10077C006800002080B500AF00F004F800F07EF8AF
:10078C0000BF80BD80B500AF394B1B680B3B032B02
:10079C0064D801A252F823F0B5070008C707000877
:1007AC0033080008FD070008314B0C221A604FF487
:1007BC007A71052000F086FB57E02E4B1B68002B4E
:1007CC0002DC2C4B03221A602B4B5B69012B47D1AB
:1007DC00284B1B681846FFF791FD264B1B68013B05
:1007EC00244A13604FF47A71052000F06BFB37E05C
:1007FC00204B1B68002B02DC1E4B02221A601E4B86
:10080C005B69012B2ED11B4B1B681846FFF776FD3D
:10081C00184B1B68013B174A13604FF47A71052083
:10082C0000F050FB1EE0134B1B68002B02DC114B3D
:10083C0005221A60104B5B69012B15D10D4B1B68FF
:10084C001846FFF75BFD0B4B1B68013B094A136015
:10085C004FF47A71052000F035FB05E000BF04E091
:10086C0000BF02E000BF00E000BF00BF80BD00BFC2
:10087C00AC0000206C0000205001002080B500AFBF
:10088C00394B1B680B3B032B64D801A252F823F0A5
:10089C00AD0800082B090008F5080008BF0800087F
:1008AC00314B0E221A604FF47A71062000F00AFBCD
:1008BC0057E02E4B1B68002B02DC2C4B02221A60DB
:1008CC002B4B9B69012B47D1284B1B681846FFF714
:1008DC00DDFD264B1B68013B244A13604FF47A71F3
:1008EC00062000F0EFFA37E0204B1B68002B02DCEF
:1008FC001E4B05221A601E4B9B69012B2ED11B4BE4
:10090C001B681846FFF7C2FD184B1B68013B174AC2
:10091C0013604FF47A71062000F0D4FA1EE0134BEA
:10092C001B68002B02DC114B03221A60104B9B69D5
:10093C00012B15D10D4B1B681846FFF7A7FD0B4B70
:10094C001B68013B094A13604FF47A71062000F0D2
:10095C00B9FA05E000BF04E000BF02E000BF00E010
:10096C0000BF00BF80BD00BFB000002070000020A1
:10097C005001002080B500AF00F098FB344B1B6891
:10098C000B3B032B5BD801A252F823F0A9090008FA
:10099C00BB0900081B0A0008EB0900082C4B0C22B1
:1009AC001A6041F28831012000F08CFA4EE0FFF71A
:1009BC0053FE284B5B68012B07D1254B0E221A6086
:1009CC0040F6B831012000F07DFA0120FFF7B8FBAA
:1009DC000346012B35D11E4B16221A6031E0FFF76E
:1009EC003BFE1C4B5B68012B07D1194B0D221A6087
:1009FC004FF4FA61012000F065FA0120FFF7A0FB2B
:100A0C000346012B1FD1124B16221A601BE0FFF775
:100A1C0023FE104B5B68012B07D10D4B0C221A6087
:100A2C0041F28831012000F04DFA0120FFF788FBDC
:100A3C000346012B09D1064B16221A6005E000BFB4
:100A4C0004E000BF02E000BF00E000BF00BF80BDBB
:100A5C00AC0000205001002080B500AF00F094FBEA
:100A6C00274B1B680B3B032B40D801A252F823F0F9
:100A7C008D0A0008DB0A0008BD0A00089F0A00085E
:100A8C001F4B0E221A6040F6B831022000F01AFA01
:100A9C0033E0FFF7E1FD1B4B9B68012B28D1184B72
:100AAC000D221A604FF4FA61022000F00BFA1FE0DD
:100ABC00FFF7D2FD134B9B68012B1BD1104B0C2263
:100ACC001A6041F28831022000F0FCF912E0FFF7C5
:100ADC00C3FD0C4B9B68012B0ED1094B0E221A60E7
:100AEC0040F6B831022000F0EDF905E000BF04E05B
:100AFC0000BF02E000BF00E000BF00BF80BD00BF30
:100B0C00B00000205001002080B500AFFFF732FF8D
:100B1C00FFF7A2FF00BF80BD80B500AF00F004F866
:100B2C0000F020F800BF80BD80B500AF00F0BEFA29
:100B3C000B4B1B68182B09D0182B0DDC162B02D075
:100B4C00172B06D008E0FFF787FD06E0FFF784FDC2
:100B5C0003E0FFF781FD00E000BF00BF80BD00BFD8
:100B6C00AC00002080B500AF00F00EFB0B4B1B68F7
:100B7C00182B09D0182B0DDC162B02D0172B06D0F6
:100B8C0008E0FFF769FD06E0FFF766FD03E0FFF7FD
:100B9C0063FD00E000BF00BF80BD00BFB0000020BF
:100BAC0080B500AF0120FFF7CBFA0346012B04D12F
:100BBC00064B1B680133054A1360044B1B68052B5D
:100BCC0002D1024B00221A6000BF80BDB40000208D
:100BDC0080B500AFFFF7E4FF164B1B68042B26D83B
:100BEC0001A252F823F000BF090C00083B0C0008CE
:100BFC00110C00081F0C00082D0C00080D4B0122D5
:100C0C001A6015E00C4B16221A600C4B16221A6057
:100C1C000EE0094B17221A60084B17221A6007E0E6
:100C2C00054B18221A60054B18221A6000E000BF11
:100C3C0000BF80BDB4000020AC000020B00000203C
:100C4C0080B500AF00F034FB00F024F800F0AAF8F7
:100C5C0000F05CF80C4801F089FA0C4B0B221A607E
:100C6C000B4B0B221A604FF47A71002000F02AF91A
:100C7C0000F006FAFFF748FFFFF77CFDFFF74CFF8B
:100C8C00FFF7A6FFF4E700BFE0000020AC00002057
:100C9C00B000002080B590B000AF07F118032822F7
:100CAC000021184601F012FE3B1D00221A605A600A
:100CBC009A60DA601A610223BB610123BB621023C4
:100CCC00FB6200237B6307F11803184600F022FE39
:100CDC000346002B01D000F0EFF80F237B600023BC
:100CEC00BB600023FB6000233B6100237B613B1D49
:100CFC000021184601F08EF80346002B01D000F0BD
:100D0C00DBF800BF4037BD4680BD000080B586B023
:100D1C0000AF07F1080300221A605A609A60DA608B
:100D2C003B4600221A605A601D4B4FF080421A60FD
:100D3C001B4B41F63F725A60194B00229A60184BBC
:100D4C000922DA60164B00221A61154B00229A61B7
:100D5C00134801F0BBF90346002B01D000F0ACF8AE
:100D6C004FF48053BB6007F1080319460C4801F09F
:100D7C0039FB0346002B01D000F09EF800233B60AA
:100D8C0000237B603B461946054801F011FD0346E4
:100D9C00002B01D000F090F800BF1837BD4680BD85
:100DAC00E000002080B588B000AF07F110030022EE
:100DBC001A605A609A60DA60354B9B69344A43F08A
:100DCC0010039361324B9B6903F01003FB60FB68CB
:100DDC002F4B9B692E4A43F0040393612C4B9B6968
:100DEC0003F00403BB60BB68294B9B69284A43F0A2
:100DFC0008039361264B9B6903F008037B607B68B7
:100E0C0000224FF6F871234800F053FD002243F600
:100E1C00FF71214800F04DFD4FF400533B6100235E
:100E2C007B610123BB6107F1100319461B4800F0DD
:100E3C00AFFB07233B6100237B610123BB6107F1FF
:100E4C0010031946134800F0A3FB4FF6F8733B61EF
:100E5C0001237B610023BB610223FB6107F11003BB
:100E6C0019460C4800F094FB43F6FF733B610123D9
:100E7C007B610023BB610223FB6107F11003194660
:100E8C00054800F085FB00BF2037BD4680BD00BF84
:100E9C000010024000080140000C0140001001400D
:100EAC0080B582B000AF786000F02CF8FFF7A8F99D
:100EBC0000BF0837BD4680BD80B400AF72B600BF1E
:100ECC00FEE7000080B483B000AF786039600A4A56
:100EDC007B68002142F823103B68084A82FB03120E
:100EEC009210DB17D21A06497B6841F8232000BF09
:100EFC000C37BD4680BC70475001002067666666A3
:100F0C002801002080B483B000AF00237B601CE07C
:100F1C00124A7B6852F82330002B13DB0F4A7B6894
:100F2C0052F823305A1E0D497B6841F823200B4A96
:100F3C007B6852F82330002B04DC094A7B680121C2
:100F4C0042F823107B6801337B607B68092BDFDD63
:100F5C0000BF00BF0C37BD4680BC70472801002085
:100F6C005001002080B485B000AF154B9B69144A2A
:100F7C0043F001039361124B9B6903F00103BB60C7
:100F8C00BB680F4BDB690E4A43F08053D3610C4BAB
:100F9C00DB6903F080537B607B680A4B5B68FB600A
:100FAC00FB6823F0E063FB60FB6843F08063FB604D
:100FBC00044AFB68536000BF1437BD4680BC7047C1
:100FCC00001002400000014080B584B000AF786092
:100FDC007B681B68B3F1804F13D10C4BDB690B4A58
:100FEC0043F00103D361094BDB6903F00103FB60A0
:100FFC00FB68002200211C2000F093FA1C2000F05A
:10100C00ACFA00BF1037BD4680BD00BF00100240D7
:10101C0080B400AFFEE780B400AFFEE780B400AF51
:10102C00FEE780B400AFFEE780B400AFFEE780B40B
:10103C0000AF00BFBD4680BC704780B400AF00BF9E
:10104C00BD4680BC704780B400AF00BFBD4680BCBD
:10105C00704780B500AF00F071F900BF80BD000093
:10106C0080B500AF024801F0CDF800BF80BD00BFD5
:10107C00E000002080B400AF00BFBD4680BC7047CC
:10108C0080B500AF074B1B68012B08D11021064817
:10109C0000F027FC4FF47A710020FFF713FF00BF1C
:1010AC0080BD00BF500100200008014080B400AF9B
:1010BC00314B1B680C3B0C2B58D801A252F823F077
:1010CC0001110008511100082911000879110008BC
:1010DC0079110008791100087911000879110008BC
:1010EC007911000879110008151100086511000824
:1010FC003D110008214B01221A60214B00221A607D
:10110C00204B00221A6032E01C4B01221A601C4B4F
:10111C0000221A601B4B00221A6028E0174B002299
:10112C001A60174B01221A60164B00221A601EE03F
:10113C00124B00221A60124B01221A60114B002232
:10114C001A6014E00D4B00221A600D4B00221A603D
:10115C000C4B01221A600AE0084B00221A60084B63
:10116C0000221A60074B01221A6000E000BF00BF8A
:10117C00BD4680BC704700BFAC000020640000205E
:10118C009C000020A000002080B400AF314B1B68F5
:10119C000C3B0C2B58D801A252F823F0DD1100089F
:1011AC0005120008F111000855120008551200082C
:1011BC005512000855120008551200085512000867
:1011CC005512000819120008411200082D120008CF
:1011DC00214B01221A60214B00221A60204B002265
:1011EC001A6032E01C4B00221A601C4B01221A6060
:1011FC001B4B00221A6028E0174B00221A60174B79
:10120C0000221A60164B01221A601EE0124B0122BA
:10121C001A60124B00221A60114B00221A6014E063
:10122C000D4B00221A600D4B01221A600C4B002250
:10123C001A600AE0084B00221A60084B00221A6060
:10124C00074B01221A6000E000BF00BFBD4680BC06
:10125C00704700BFB0000020A400002068000020F0
:10126C00A8000020FFF706FF0B480C490C4A00238E
:10127C0002E0D458C4500433C4188C42F9D3094A40
:10128C00094C002301E013600432A242FBD301F0AD
:10129C00F9FAFFF7D5FC7047000000208000002011
:1012AC002C290008800000207C010020FEE70000B3
:1012BC0080B500AF084B1B68074A43F0100313605E
:1012CC00032000F023F90F2000F008F8FFF74AFE86
:1012DC000023184680BD00BF0020024080B582B0BC
:1012EC0000AF7860124B1A68124B1B7819464FF4FA
:1012FC007A73B3FBF1F3B2FBF3F3184600F03BF94E
:10130C000346002B01D001230EE07B680F2B0AD87B
:10131C00002279684FF0FF3000F003F9064A7B6831
:10132C001360002300E0012318460837BD4680BD3A
:10133C00740000207C0000207800002080B400AFF6
:10134C00054B1B781A46054B1B681344034A136064
:10135C0000BFBD4680BC70477C0000207801002097
:10136C0080B400AF024B1B681846BD4680BC70476A
:10137C007801002080B485B000AF78607B6803F002
:10138C000703FB600C4BDB68BB60BA684FF6FF03CE
:10139C001340BB60FB681A02BB68134343F0BF6386
:1013AC0043F40033BB60044ABB68D36000BF1437FE
:1013BC00BD4680BC704700BF00ED00E080B400AFBC
:1013CC00044BDB681B0A03F007031846BD4680BCC0
:1013DC00704700BF00ED00E080B483B000AF03465F
:1013EC00FB7197F90730002B0BDBFB7903F01F0225
:1013FC00064997F907305B09012000FA02F241F81F
:10140C00232000BF0C37BD4680BC704700E100E0D4
:10141C0080B483B000AF03463960FB7197F9073095
:10142C00002B0ADB3B68DAB20C4997F90730120142
:10143C00D2B20B4483F800230AE03B68DAB20849C5
:10144C00FB7903F00F03043B1201D2B20B441A7662
:10145C0000BF0C37BD4680BC704700BF00E100E008
:10146C0000ED00E080B489B000AFF860B9607A603C
:10147C00FB6803F00703FB61FB69C3F10703042B53
:10148C0028BF0423BB61FB690433062B02D9FB691B
:10149C00033B00E000237B614FF0FF32BB6902FA93
:1014AC0003F3DA43BB681A407B699A404FF0FF3173
:1014BC007B6901FA03F3D9437B680B40134318464D
:1014CC002437BD4680BC704780B582B000AF7860D1
:1014DC007B68013BB3F1807F01D301230FE00A4A03
:1014EC007B68013B53600F214FF0FF30FFF790FFFB
:1014FC00054B00229A60044B07221A600023184601
:10150C000837BD4680BD00BF10E000E080B582B05A
:10151C0000AF78607868FFF72DFF00BF0837BD4635
:10152C0080BD80B586B000AF0346B9607A60FB73AE
:10153C0000237B61FFF742FF78617A68B9687869AC
:10154C00FFF790FF024697F90F3011461846FFF748
:10155C005FFF00BF1837BD4680BD80B582B000AFBD
:10156C000346FB7197F907301846FFF735FF00BFAC
:10157C000837BD4680BD80B582B000AF7860786812
:10158C00FFF7A2FF034618460837BD4680BD000092
:10159C0080B48BB000AF7860396000237B6200238D
:1015AC003B6248E101227B6A02FA03F3FB613B6870
:1015BC001B68FA691340BB61BA69FB699A4240F037
:1015CC0037813B685B68A34A93425ED0A14A934241
:1015DC0075D8A14A934258D09F4A93426FD89F4ADC
:1015EC00934252D09D4A934269D89D4A93424CD023
:1015FC009B4A934263D89B4A934246D0994A934262
:10160C005DD8122B2AD8122B59D801A252F823F0EC
:10161C00971600087116000883160008C5160008F6
:10162C00CB160008CB160008CB160008CB1600080A
:10163C00CB160008CB160008CB160008CB160008FA
:10164C00CB160008CB160008CB160008CB160008EA
:10165C00CB160008791600088D160008824A9342B2
:10166C0013D02CE03B68DB683B6229E03B68DB680D
:10167C0004333B6224E03B68DB6808333B621FE0C9
:10168C003B68DB680C333B621AE03B689B68002BC1
:10169C0002D104233B6213E03B689B68012B05D10C
:1016AC0008233B627B68FA691A6109E008233B62F4
:1016BC007B68FA695A6103E000233B6200E000BFDB
:1016CC00BB69FF2B01D87B6801E07B6804337B612D
:1016DC00BB69FF2B02D87B6A9B0002E07B6A083B4C
:1016EC009B003B617B691A680F213B6901FA03F38C
:1016FC00DB431A40396A3B6901FA03F31A437B69ED
:10170C001A603B685B6803F08053002B00F09080FC
:10171C00564B9B69554A43F001039361534B9B69AC
:10172C0003F00103BB60BB68514A7B6A9B08023320
:10173C0052F82330FB607B6A03F003039B000F22FB
:10174C0002FA03F3DB43FA681340FB607B68494AF7
:10175C0093420DD07B68484A934207D07B68474A36
:10176C00934201D1022304E0032302E0012300E0B1
:10177C0000237A6A02F0030292009340FA68134342
:10178C00FB603B497B6A9B080233FA6841F82320D3
:10179C003B685B6803F48013002B06D0384B9A68C7
:1017AC003749BB6913438B6006E0354B9A68BB69BC
:1017BC00DB43334913408B603B685B6803F40013D5
:1017CC00002B06D02E4BDA682D49BB691343CB6036
:1017DC0006E02B4BDA68BB69DB4329491340CB602D
:1017EC003B685B6803F40033002B06D0244B5A682B
:1017FC002349BB6913434B6006E0214B5A68BB6914
:10180C00DB431F4913404B603B685B6803F4803338
:10181C00002B06D01A4B1A681949BB6913430B608D
:10182C0006E0174B1A68BB69DB43154913400B6084
:10183C007B6A01337B623B681A687B6A22FA03F38A
:10184C00002B7FF4AFAE00BF00BF2C37BD4680BC71
:10185C00704700BF00003210000031100000221051
:10186C0000002110000012100000111000100240A6
:10187C000000014000080140000C01400010014034
:10188C000004014080B485B000AF78600B467B80CB
:10189C007B689A687B881340002B02D00123FB7372
:1018AC0001E00023FB73FB7B18461437BD4680BC5C
:1018BC00704780B483B000AF78600B467B801346D2
:1018CC007B707B78002B03D07A887B681A6103E0ED
:1018DC007B881A047B681A6100BF0C37BD4680BC3C
:1018EC00704780B485B000AF78600B467B807B6816
:1018FC00DB68FB607A88FB6813401A04FB68D943E9
:10190C007B880B401A437B681A6100BF1437BD46B5
:10191C0080BC704780B586B000AF78607B68002BC8
:10192C0001D101236CE27B681B6803F00103002BDF
:10193C0000F08780924B5B6803F00C03042B0CD0F7
:10194C008F4B5B6803F00C03082B12D18C4B5B683C
:10195C0003F48033B3F5803F0BD1894B1B6803F440
:10196C000033002B6CD07B685B68002B68D10123A3
:10197C0046E27B685B68B3F5803F06D1804B1B6801
:10198C007F4A43F4803313602EE07B685B68002B46
:10199C000CD17B4B1B687A4A23F480331360784B51
:1019AC001B68774A23F4802313601DE07B685B6817
:1019BC00B3F5A02F0CD1724B1B68714A43F48023F2
:1019CC0013606F4B1B686E4A43F4803313600BE05B
:1019DC006B4B1B686A4A23F480331360684B1B689B
:1019EC00674A23F4802313607B685B68002B13D059
:1019FC00FFF7B6FC386108E0FFF7B2FC02463B6922
:101A0C00D31A642B01D90323FAE15D4B1B6803F451
:101A1C000033002BF0D014E0FFF7A2FC386108E093
:101A2C00FFF79EFC02463B69D31A642B01D90323B2
:101A3C00E6E1534B1B6803F40033002BF0D100E0BC
:101A4C0000BF7B681B6803F00203002B63D04C4B78
:101A5C005B6803F00C03002B0BD0494B5B6803F065
:101A6C000C03082B1CD1464B5B6803F48033002B12
:101A7C0016D1434B1B6803F00203002B05D07B6887
:101A8C001B69012B01D00123BAE13D4B1B6823F0EC
:101A9C00F8027B685B69DB00394913430B603AE061
:101AAC007B681B69002B20D0364B01221A60FFF794
:101ABC0057FC386108E0FFF753FC02463B69D31A28
:101ACC00022B01D903239BE12D4B1B6803F002036E
:101ADC00002BF0D02A4B1B6823F0F8027B685B6963
:101AEC00DB00274913430B6015E0264B00221A60DC
:101AFC00FFF736FC386108E0FFF732FC02463B6921
:101B0C00D31A022B01D903237AE11D4B1B6803F076
:101B1C000203002BF0D17B681B6803F00803002B39
:101B2C003AD07B689B69002B19D0174B01221A60A5
:101B3C00FFF716FC386108E0FFF712FC02463B6920
:101B4C00D31A022B01D903235AE10D4B5B6A03F024
:101B5C000203002BF0D0012000F09AFA1CE00A4B93
:101B6C0000221A60FFF7FCFB38610FE0FFF7F8FB6F
:101B7C0002463B69D31A022B08D9032340E100BF6C
:101B8C000010024000004242800442429E4B5B6ABD
:101B9C0003F00203002BE9D17B681B6803F00403FC
:101BAC00002B00F0A6800023FB75974BDB6903F03C
:101BBC008053002B0DD1944BDB69934A43F0805337
:101BCC00D361914BDB6903F08053BB60BB6801238D
:101BDC00FB758E4B1B6803F48073002B18D18B4B59
:101BEC001B688A4A43F480731360FFF7B9FB3861B2
:101BFC0008E0FFF7B5FB02463B69D31A642B01D909
:101C0C000323FDE0814B1B6803F48073002BF0D0A1
:101C1C007B68DB68012B06D17B4B1B6A7A4A43F04D
:101C2C00010313622DE07B68DB68002B0CD1764B33
:101C3C001B6A754A23F001031362734B1B6A724AC9
:101C4C0023F0040313621CE07B68DB68052B0CD1CA
:101C5C006D4B1B6A6C4A43F0040313626A4B1B6A9C
:101C6C00694A43F0010313620BE0674B1B6A664A37
:101C7C0023F001031362644B1B6A634A23F00403D1
:101C8C0013627B68DB68002B15D0FFF769FB3861AA
:101C9C000AE0FFF765FB02463B69D31A41F2883232
:101CAC00934201D90323ABE0574B1B6A03F00203A9
:101CBC00002BEED014E0FFF753FB38610AE0FFF77E
:101CCC004FFB02463B69D31A41F28832934201D949
:101CDC00032395E04C4B1B6A03F00203002BEED15F
:101CEC00FB7D012B05D1484BDB69474A23F0805320
:101CFC00D3617B68DB69002B00F08180424B5B6811
:101D0C0003F00C03082B61D07B68DB69022B46D1F6
:101D1C003F4B00221A60FFF723FB386108E0FFF706
:101D2C001FFB02463B69D31A022B01D9032367E040
:101D3C00354B1B6803F00073002BF0D17B681B6ADA
:101D4C00B3F5803F08D1304B5B6823F400327B68DD
:101D5C009B682D4913434B602B4B5B6823F4741227
:101D6C007B68196A7B685B6A0B43274913434B609A
:101D7C00274B01221A60FFF7F3FA386108E0FFF7EE
:101D8C00EFFA02463B69D31A022B01D9032337E041
:101D9C001D4B1B6803F00073002BF0D02FE01C4B85
:101DAC0000221A60FFF7DCFA386108E0FFF7D8FA76
:101DBC0002463B69D31A022B01D9032320E0124BB4
:101DCC001B6803F00073002BF0D118E07B68DB6913
:101DDC00012B01D1012313E00B4B5B68FB60FB680B
:101DEC0003F480327B681B6A9A4206D1FB6803F4C9
:101DFC0070127B685B6A9A4201D0012300E00023D9
:101E0C0018461837BD4680BD0010024000700040D7
:101E1C006000424280B584B000AF786039607B6866
:101E2C00002B01D10123D0E06A4B1B6803F00703A0
:101E3C003A689A4210D9674B1B6823F00702654930
:101E4C003B6813430B60634B1B6803F007033A6852
:101E5C009A4201D00123B8E07B681B6803F00203AF
:101E6C00002B20D07B681B6803F00403002B05D0EB
:101E7C00594B5B68584A43F4E06353607B681B68BA
:101E8C0003F00803002B05D0534B5B68524A43F414
:101E9C0060535360504B5B6823F0F0027B689B6887
:101EAC004D4913434B607B681B6803F00103002B07
:101EBC0040D07B685B68012B07D1474B1B6803F450
:101ECC000033002B15D101237FE07B685B68022B6C
:101EDC0007D1414B1B6803F00073002B09D1012380
:101EEC0073E03D4B1B6803F00203002B01D101236F
:101EFC006BE0394B5B6823F003027B685B68364907
:101F0C0013434B60FFF72CFAF8600AE0FFF728FA4E
:101F1C000246FB68D31A41F28832934201D903235B
:101F2C0053E02D4B5B6803F00C027B685B689B00F5
:101F3C009A42EBD1274B1B6803F007033A689A428D
:101F4C0010D2244B1B6823F0070222493B68134331
:101F5C000B60204B1B6803F007033A689A4201D0D0
:101F6C00012332E07B681B6803F00403002B08D0CC
:101F7C00194B5B6823F4E0627B68DB6816491343FA
:101F8C004B607B681B6803F00803002B09D0124BD5
:101F9C005B6823F460527B681B69DB000E491343BA
:101FAC004B6000F021F802460B4B5B681B0903F0F9
:101FBC000F030A49CB5C22FA03F3094A1360094B5D
:101FCC001B681846FFF78AF9002318461037BD46E0
:101FDC0080BD00BF00200240001002400029000814
:101FEC00740000207800002080B487B000AF00237C
:101FFC00FB600023BB6000237B6100237B6000231C
:10200C003B611E4B5B68FB60FB6803F00C03042B0D
:10201C0002D0082B03D027E0194B3B6127E0FB686B
:10202C009B0C03F00F03174AD35C7B60FB6803F433
:10203C008033002B10D0114B5B685B0C03F0010359
:10204C00114AD35CBB607B680D4A02FB03F2BB6890
:10205C00B2FBF3F37B6104E07B680C4A02FB03F3F5
:10206C007B617B693B6102E0054B3B6100BF3B69D7
:10207C0018461C37BD4680BC704700BF001002409C
:10208C0000127A00102900082029000800093D00E0
:10209C0080B485B000AF78600A4B1B680A4AA2FB7B
:1020AC0003235B0A7A6802FB03F3FB6000BFFB6847
:1020BC005A1EFA60002BF9D100BF00BF1437BD4681
:1020CC0080BC704774000020D34D621080B582B084
:1020DC0000AF78607B68002B01D1012341E07B6865
:1020EC0093F83D30DBB2002B06D17B68002283F8DD
:1020FC003C207868FEF768FF7B68022283F83D205D
:10210C007B681A687B6804331946104600F056FA4F
:10211C007B68012283F846207B68012283F83E20ED
:10212C007B68012283F83F207B68012283F84020E2
:10213C007B68012283F841207B68012283F84220CE
:10214C007B68012283F843207B68012283F84420BA
:10215C007B68012283F845207B68012283F83D20AF
:10216C00002318460837BD4680BD000080B485B0FA
:10217C0000AF78607B6893F83D30DBB2012B01D067
:10218C00012335E07B68022283F83D207B681B68C5
:10219C00DA687B681B6842F00102DA607B681B68B6
:1021AC00164A934209D07B681B68B3F1804F04D068
:1021BC007B681B68124A934211D17B681B689B6831
:1021CC0003F00703FB60FB68062B10D07B681B68D1
:1021DC001A687B681B6842F001021A6007E07B6892
:1021EC001B681A687B681B6842F001021A600023A6
:1021FC0018461437BD4680BC704700BF002C014008
:10220C000004004080B584B000AF78607B681B6828
:10221C00DB68FB607B681B681B69BB60BB6803F0F9
:10222C000203002B20D0FB6803F00203002B1BD011
:10223C007B681B686FF002021A617B6801221A77B7
:10224C007B681B689B6903F00303002B03D0786841
:10225C0000F098F905E0786800F08BF9786800F0E8
:10226C009AF97B6800221A77BB6803F00403002BF1
:10227C0020D0FB6803F00403002B1BD07B681B6889
:10228C006FF004021A617B6802221A777B681B6864
:10229C009B6903F44073002B03D0786800F072F94B
:1022AC0005E0786800F065F9786800F074F97B68EF
:1022BC0000221A77BB6803F00803002B20D0FB68C0
:1022CC0003F00803002B1BD07B681B686FF008021F
:1022DC001A617B6804221A777B681B68DB6903F040
:1022EC000303002B03D0786800F04CF905E0786804
:1022FC0000F03FF9786800F04EF97B6800221A77FD
:10230C00BB6803F01003002B20D0FB6803F0100314
:10231C00002B1BD07B681B686FF010021A617B6866
:10232C0008221A777B681B68DB6903F44073002B67
:10233C0003D0786800F026F905E0786800F019F908
:10234C00786800F028F97B6800221A77BB6803F0E4
:10235C000103002B0CD0FB6803F00103002B07D00A
:10236C007B681B686FF001021A617868FEF798FDB4
:10237C00BB6803F08003002B0CD0FB6803F08003D8
:10238C00002B07D07B681B686FF080021A6178689D
:10239C0000F06FFABB6803F04003002B0CD0FB6815
:1023AC0003F04003002B07D07B681B686FF04002E2
:1023BC001A61786800F0F8F8BB6803F02003002B72
:1023CC000CD0FB6803F02003002B07D07B681B6844
:1023DC006FF020021A61786800F042FA00BF1037E3
:1023EC00BD4680BD80B584B000AF786039600023F5
:1023FC00FB737B6893F83C30012B01D10223B4E0D2
:10240C007B68012283F83C207B68022283F83D2004
:10241C007B681B689B68BB60BB6823F07703BB6061
:10242C00BB6823F47F43BB607B681B68BA689A6007
:10243C003B681B68B3F5005F3ED0B3F5005F00F25C
:10244C008780B3F5805F00F08680B3F5805F7FD81E
:10245C00702B1AD0702B7BD8602B50D0602B77D878
:10246C00502B3CD0502B73D8402B58D0402B6FD8CE
:10247C00302B64D0302B6BD8202B60D0202B67D81E
:10248C00002B5CD0102B5AD062E07B6818683B683C
:10249C0099683B685A683B68DB6800F06AF97B68AE
:1024AC001B689B68BB60BB6843F07703BB607B68B1
:1024BC001B68BA689A604FE07B6818683B6899683B
:1024CC003B685A683B68DB6800F053F97B681B6813
:1024DC009A687B681B6842F480429A603CE07B6897
:1024EC0018683B6859683B68DB681A4600F0CAF804
:1024FC007B681B685021184600F021F92CE07B68A2
:10250C0018683B6859683B68DB681A4600F0E8F8C5
:10251C007B681B686021184600F011F91CE07B6891
:10252C0018683B6859683B68DB681A4600F0AAF8E3
:10253C007B681B684021184600F001F90CE07B68B1
:10254C001A683B681B681946104600F0F8F803E05F
:10255C000123FB7300E000BF7B68012283F83D2060
:10256C007B68002283F83C20FB7B18461037BD4665
:10257C0080BD80B483B000AF786000BF0C37BD461F
:10258C0080BC704780B483B000AF786000BF0C375C
:10259C00BD4680BC704780B483B000AF786000BF8C
:1025AC000C37BD4680BC704780B483B000AF7860F8
:1025BC0000BF0C37BD4680BC7047000080B485B0AE
:1025CC0000AF786039607B681B68FB607B682B4AC6
:1025DC00934207D07B68B3F1804F03D07B68284AC5
:1025EC00934208D1FB6823F07003FB603B685B6887
:1025FC00FA681343FB607B68204A934207D07B68E0
:10260C00B3F1804F03D07B681D4A934208D1FB681D
:10261C0023F44073FB603B68DB68FA681343FB6090
:10262C00FB6823F080023B685B691343FB607B68AB
:10263C00FA681A603B689A687B68DA623B681A68C9
:10264C007B689A627B680D4A934203D13B681A6996
:10265C007B681A637B6801225A617B681B6903F0F3
:10266C000103002B05D07B681B6923F001027B68FA
:10267C001A6100BF1437BD4680BC7047002C014066
:10268C000004004080B487B000AFF860B9607A6095
:10269C00FB681B6A7B61FB681B6A23F00102FB6809
:1026AC001A62FB689B693B613B6923F0F0033B6159
:1026BC007B681B013A6913433B617B6923F00A0376
:1026CC007B617A69BB6813437B61FB683A699A61E9
:1026DC00FB687A691A6200BF1C37BD4680BC704724
:1026EC0080B487B000AFF860B9607A60FB681B6A91
:1026FC007B61FB681B6A23F01002FB681A62FB68A3
:10270C009B693B613B6923F470433B617B681B0312
:10271C003A6913433B617B6923F0A0037B61BB687F
:10272C001B017A6913437B61FB683A699A61FB6808
:10273C007A691A6200BF1C37BD4680BC704780B4F2
:10274C0085B000AF786039607B689B68FB60FB6884
:10275C0023F07003FB603A68FB68134343F00703F4
:10276C00FB607B68FA689A6000BF1437BD4680BC7A
:10277C00704780B487B000AFF860B9607A603B6096
:10278C00FB689B687B617B6923F47F437B613B68BF
:10279C001A027B681A43BB6813437A6913437B6143
:1027AC00FB687A699A6000BF1C37BD4680BC7047D5
:1027BC0080B485B000AF786039607B6893F83C30AA
:1027CC00012B01D1022341E07B68012283F83C20DC
:1027DC007B68022283F83D207B681B685B68FB608A
:1027EC007B681B689B68BB60FB6823F07003FB6015
:1027FC003B681B68FA681343FB607B681B68FA68CC
:10280C005A607B681B68144A934209D07B681B682A
:10281C00B3F1804F04D07B681B68104A93420CD1F3
:10282C00BB6823F08003BB603B685B68BA681343EA
:10283C00BB607B681B68BA689A607B68012283F86E
:10284C003D207B68002283F83C2000231846143777
:10285C00BD4680BC704700BF002C01400004004006
:10286C0080B483B000AF786000BF0C37BD4680BC2D
:10287C00704780B483B000AF786000BF0C37BD46A2
:10288C0080BC704770B500260C4D0D4C641BA41019
:10289C00A64209D100F022F800260A4D0A4C641B0E
:1028AC00A410A64205D170BD55F8043B98470136DB
:1028BC00EEE755F8043B98470136F2E72429000867
:1028CC00242900082429000828290008034602446A
:1028DC00934200D1704703F8011BF9E7F8B500BF2C
:1028EC00F8BC08BC9E467047F8B500BFF8BC08BCE5
:0428FC009E4670473D
:10290000000000000000000001020304060708099F
:1029100002030405060708090A0B0C0D0E0F101020
:0429200001020000B0
:042924003101000875
:042928000D01000895
:10292C000100000001000000010000000100000097
:10293C000100000001000000010000000100000087
:10294C000100000001000000010000000100000077
:10295C000100000001000000010000000100000067
:10296C000100000001000000010000000100000057
:10297C002C0100002C0100002C0100002C01000097
:10298C002C01000001000000010000000500000007
:10299C000300000000127A0010000000010000008B
:04000005080012716C
:00000001FF
